:100000000C943C000C9464000C9464000C94640008
:100010000C9464000C9464000C9464000C946400D0
:100020000C9464000C9464000C9464000C944921BA
:100030000C9464000C9464000C9464000C946400B0
:100040000C94FF200C9464000C94CD200C94A720F9
:100050000C9464000C9464000C9464000C94640090
:100060000C9464000C946400004062633F065B4F94
:10007000666D7D077F6FA22111241FBECFEFD8E0F0
:10008000DEBFCDBF11E0A0E0B1E0EAE8F9E602C0D2
:1000900005900D92A434B107D9F727E0A4E4B1E0AC
:1000A00001C01D92AB3FB207E1F710E0CCE3D0E016
:1000B00004C02197FE010E94B634CB33D107C9F7A3
:1000C0000E94D7210C94C3340C940000CF92DF928D
:1000D000EF92FF92E62F2091EE0330E0220F331FC4
:1000E00041E050E060E070E06A017B01022E04C054
:1000F000CC0CDD1CEE1CFF1C0A94D2F79C2D9095B5
:100100002F5F3F4F04C0440F551F661F771F2A956E
:10011000D2F740952BE1829FB00111246E0F711D23
:10012000FB01EE0FFF1FE75EFB4F808184238923D5
:100130008083660F771FFB01E151FC4F83A54823A5
:10014000492343A7FF90EF90DF90CF900895F89454
:100150008CB5ECEEF7E084838DB5858380E58CBDAE
:1001600081E08DBD818308952A9A78941092ED07DD
:100170000895AF92BF92CF92DF92EF92FF920F93CA
:100180001F93CF93DF936C017B018B01040F151F2D
:10019000EB015E01AE18BF08C017D10759F0699195
:1001A000D601ED91FC910190F081E02DC6010995F9
:1001B000892B79F7C501DF91CF911F910F91FF90A6
:1001C000EF90DF90CF90BF90AF900895FC01538DDA
:1001D000448D252F30E0842F90E0821B930B541721
:1001E00010F0CF96089501970895FC01918D828DAE
:1001F000981761F0A28DAE0FBF2FB11D5D968C9147
:10020000928D9F5F9F73928F90E008958FEF9FEF85
:100210000895FC01918D828D981731F0828DE80F41
:10022000F11D858D90E008958FEF9FEF0895FC01FB
:10023000918D228D892F90E0805C9F4F821B9109C8
:100240008F73992708958FE497E00E94170121E0AA
:10025000892B09F420E0822F089580E090E0892B1B
:1002600029F00E94230181110C9400000895FC01E3
:10027000A48DA80FB92FB11DA35ABF4F2C91848D07
:1002800090E001968F739927848FA689B7892C9364
:10029000A089B1898C91837080648C93938D848DB7
:1002A000981306C00288F389E02D80818F7D8083BA
:1002B0000895EF92FF920F931F93CF93DF93EC017A
:1002C00081E0888F9B8D8C8D98131AC0E889F989FD
:1002D000808185FF15C09FB7F894EE89FF89608300
:1002E000E889F98980818370806480839FBF81E081
:1002F00090E0DF91CF911F910F91FF90EF900895C3
:10030000F62E0B8D10E00F5F1F4F0F731127E02E9D
:100310008C8D8E110CC00FB607FCFACFE889F989D5
:10032000808185FFF5CFCE010E943701F1CFEB8DA3
:10033000EC0FFD2FF11DE35AFF4FF0829FB7F894A9
:100340000B8FEA89FB8980818062CFCF682F8FE491
:1003500097E00C945901CF93DF93EC01888D8823AB
:10036000B9F0AA89BB89E889F9898C9185FD03C018
:10037000808186FD0DC00FB607FCF7CF8C9185FFFD
:10038000F2CF808185FFEDCFCE010E943701E9CF0A
:10039000DF91CF9108953FB7F8948091F102909149
:1003A000F202A091F302B091F40226B5A89B05C019
:1003B0002F3F19F00196A11DB11D3FBFBA2FA92FE4
:1003C000982F8827BC01CD01620F711D811D911DE1
:1003D00043E0660F771F881F991F4A95D1F708954C
:1003E0008F929F92AF92BF92CF92DF92EF92FF9245
:1003F0004B015C010E94CB016B017C010E94CB018F
:100400006C197D098E099F09683E7340810591052D
:10041000A8F321E0821A9108A108B10888EEC80E5D
:1004200083E0D81EE11CF11C81149104A104B104E5
:1004300029F7FF90EF90DF90CF90BF90AF909F9003
:100440008F900895E6EDF3E08FE3858B81E7868B4F
:10045000878B089570E0FB01EE0FFF1FEE0FFF1F6B
:1004600096E3899F90011124E20FF31FE151FC4FA5
:100470009289938BDB011596AA0FBB1FAA0FBB1F96
:10048000A20FB31FA151BC4F9C939289958B9BE106
:10049000899F600D711D1124FB01EE0FFF1FE75EA8
:1004A000FB4F8081837094E0899F90011124822BFF
:1004B00090E1890290011124822B90E4899F9001A0
:1004C0001124822B8083660F771FFB01E151FC4FC3
:1004D00083A5837094E0899F90011124822B90E181
:1004E000890290011124822B90E4899F90011124AC
:1004F000822B83A708951F93CF93DF93C82F162FC6
:100500009A0141E037FF04C031952195310940E05F
:10051000C90164E670E00E94A234FB01E459FF4F78
:100520008591949158E0C59FE0011124CA52DC4F97
:10053000C10FD11D88835CE95603F001579FF00D70
:1005400011242E0F3F1FC9016AE070E00E94A234FF
:10055000FB01E459FF4F85919491898356EF56032F
:10056000F001579FF00D1124E20FF31FE459FF4FE4
:10057000859194918A83411102C080E48883DF9140
:10058000CF911F91089530E020E090E070E050E0BE
:100590002998EBB1EF71EBB9E22FDC01022E02C01A
:1005A000B595A7950A94E2F7A0FD5D9ADB010E2EA2
:1005B00002C0B595A7950A94E2F7A0FD5E9ADA010C
:1005C00002C0B595A795EA95E2F7A0FD5F9A299A32
:1005D0002F5F3F4F28303105D9F60895289830E035
:1005E00020E090E02998AC01022E02C05595479575
:1005F0000A94E2F740FD0BC04BB14F714BB9299AF9
:100600002F5F3F4F2830310569F7289A08954BB185
:10061000406EF4CF0F931F93CF93DF9380E40E943B
:10062000EE02289840EC60EC80EC0E94C30206EDDC
:1006300013E0D0E0C0E0F80140890F5F1F4F6085F4
:1006400080810E94C3024091FC0250E00C2E02C047
:10065000559547950A94E2F741706091FB0270E06E
:100660000C2E02C0759567950A94E2F7617080912F
:10067000FA0290E00C2E02C0959587950A94E2F755
:1006800081700E94C3022196C830D105A1F6289A34
:10069000DF91CF911F910F910895E091EE02F0E06C
:1006A000E25AFD4F2F70282B2083E091EE02F0E0FC
:1006B000E25AFD4F60ABE091EE02F0E0E254FD4FF4
:1006C00040838091EE028F5F8093EE020895E82FC1
:1006D000F0E0E759FC4F6385662341F0EA5AFF4F8B
:1006E000615020814FEF80EC0C944D030895CF931F
:1006F000C0E08C2F0E946703CF5FC031D1F7CF914C
:100700000895CF93C0E02C2F40E06BE780EB0E9470
:100710004D038FE497E00E94AB01CF5FC03199F7A2
:10072000CF91089590915C03911102C0882341F10B
:10073000609105017091060190E080E00E9487338E
:1007400020E030E040EC51E40E94153420E030E03D
:1007500040E752E40E94E6329B01AC0160E074E2A3
:1007600084E799E40E94E63220E030E040E85FE36D
:100770000E9479320E9458337093890060938800F8
:10078000089590915C03911102C0882369F08091D3
:100790006F008D7F80936F00109289001092880007
:1007A0001092810010928000089590915C03911145
:1007B00002C08823C1F010928100109280008091C5
:1007C0008100992389F0826080938100809181006B
:1007D00088608093810080E00E94920380916F0086
:1007E000826080936F0008958160EECF882361F06E
:1007F00081E00E94C10384EE97E09093890080938A
:10080000880081E00C94D50381E00E94C10381E05F
:100810000E949203F6CFCF93DF9390E0662381F09E
:1008200087599C4FFC01EA5AFF4F845B9F4F208100
:1008300040E0FC01608180E8DF91CF910C944D0392
:10084000EC01C05CDD4F6881662349F087539C4F03
:10085000FC01208140E080E80E944D031882DF9176
:10086000CF910895E9E4F2E0A6E2B2E08D919C9187
:1008700011979183808312968D919C9193838283AB
:1008800081E080930801089520913F0226952695E6
:1008900081E090E0A0E0B0E004C0880F991FAA1F9B
:1008A000BB1F2A95D2F720910B033091040137FF2B
:1008B000232F40910C03442321F0806F80934D023D
:1008C00008952C5F41E050E060E070E004C0440F08
:1008D000551F661F771F2A95D2F737FD04C0806F1A
:1008E00040958423EBCF842BE9CF8A3038F4E82F6E
:1008F000F0E0E459FF4F8591949108958A3061F0BA
:100900008B3061F08C3061F08D3061F08E3061F0B1
:100910008F3061F08DE3089587E708958CE708959F
:1009200089E308958EE5089589E7089581E708959C
:1009300083E78093DE0387E58093DF038FE3809373
:10094000E00391E39093E10329E72093E20329E395
:100950002093E3039093E40390915D03992331F096
:100960008093EC0387E38093ED0308950C942202B7
:10097000FF920F931F93CF93DF9390E0A62FB0E0E9
:1009800050E0440F551FEA0121966A3048F536E3DE
:10099000389FF001399FF00D1124E151FC4FEA0F0F
:1009A000FB1FF080AF2DB0E0BD010C2E02C075958D
:1009B00067950A94E2F7660F771F6270042E02C0F3
:1009C000B595A7950A94E2F7A1706A2B6093090385
:1009D00021111DC0DF91CF911F910F91FF900895BC
:1009E0003BE1389FF001399FF00D1124EA0FFB1F06
:1009F000EE0FFF1FEB5FFB4FF080AF2DB0E0BD01AE
:100A00000C2E02C0759567950A94E2F7D4CF01E0E9
:100A100010E020E030E0D901C80104C0880F991F20
:100A2000AA1FBB1F4A95D2F780958F2104C0000FE3
:100A3000111F221F331FCA95D2F700958023808390
:100A4000C9CF30E020E0281739074CF448EE53E0D6
:100A5000000041505109E1F72F5F3F4FF4CF089557
:100A60008EBD00000DB407FEFDCF8EB50895CF9367
:100A7000DF93CCEED7E08D850E9430058C850E94F7
:100A800030058B85DF91CF910C943005CF93C82F23
:100A90008091ED07811102C00E94A7002A98C330FF
:100AA00069F0CB3069F48BE00E9430058EEE0E9435
:100AB00030050E94370581E0CF91089583E0F7CF9C
:100AC0008C2F0E943005F7CFCF92DF92EF92FF92EA
:100AD0008FB7F894C090D203D090D303E090D403A2
:100AE000F090D5038FBF8091EF0781FD2BC086E08A
:100AF0000E9446052A9A85E00E94460580E00E94F1
:100B000030052A9A8093EF072FB7F8948091D2038B
:100B10009091D303A091D403B091D5032FBF8C192A
:100B20009D09AE09BF090B97A105B105E0F286E06A
:100B30008093EE070E94B40080E0FF90EF90DF907A
:100B4000CF90089581E0F9CF8F929F92AF92BF929C
:100B5000CF92DF92EF92FF924B015C018FB7F89436
:100B6000C090D203D090D303E090D403F090D5038B
:100B70008FBF85E00E94460580E00E9430052A9ADA
:100B80008093EF072FB7F8948091D2039091D3030D
:100B9000A091D403B091D5032FBF8C199D09AE0944
:100BA000BF0988169906AA06BB0678F484E08093EC
:100BB000EE070E94B40080E0FF90EF90DF90CF90AE
:100BC000BF90AF909F908F9008958091EF0780FD28
:100BD000D0CF81E0F1CFCF92DF92EF92FF920F93CF
:100BE0001F93CF939091EE078230F1F5933051F43B
:100BF000C0E08C2FCF911F910F91FF90EF90DF906D
:100C0000CF9008959C30A1F3680179014093F707D4
:100C10005093F8076093F9077093FA076AE070E061
:100C200080E090E00E94A405882311F30E946405EF
:100C3000C82F8823E9F283E00E94460510E000E017
:100C4000C801B0E0A0E08C159D05AE05BF0550F4CD
:100C500080E00E9430058F3F11F02A9AC9CF0F5FC4
:100C60001F4FEECF2A9AC5CF933011F29C3009F472
:100C7000BFCF4093F7075093F8076093F90770933D
:100C8000FA076AE070E080E090E0CF911F910F9149
:100C9000FF90EF90DF90CF900C94A40528E0829F06
:100CA000F0011124EA52FC4F98E0DF01292F1D9238
:100CB0002A95E9F78F5F38968330B9F708952F9218
:100CC0003F924F925F926F927F928F929F92AF92DC
:100CD000BF92CF92DF92EF92FF920F931F93CF9329
:100CE000DF93CDB7DEB72B970FB6F894DEBF0FBEFC
:100CF000CDBF1092FC021092FB0220910B033091A9
:100D0000040137FF232F90910C0380EF911110C045
:100D10002C5F81E090E0A0E0B0E004C0880F991F54
:100D2000AA1FBB1F2A95D2F737FD02C08095807F8E
:100D30008093FA0210914C03123011F00C944D0F75
:100D40008091040340910103811102C0409152033C
:100D5000242F30E0483078F481E090E0A0E0B0E06B
:100D600004C0880F991FAA1FBB1F4A95D2F7809312
:100D7000FB020C94570F2850310981E090E0A0E06D
:100D8000B0E004C0880F991FAA1FBB1F2A95D2F795
:100D90008093FC020C94570F833010F40C94570F7F
:100DA00092EF980F983010F40C94570F8C3011F08C
:100DB0000C94350F0C94570F2850310981E090E0C6
:100DC000A0E0B0E004C0880F991FAA1FBB1F2A959E
:100DD000D2F72091FC02822BDBCF84E58093D603EF
:100DE0000091320310E0A0913303CA2ED12C84E08D
:100DF000289F900111248091EE03280F311D21516D
:100E00003C4F80E0F0E0E0E070E060E0562F7801D9
:100E1000062E02C0F594E7940A94E2F7E0FE08C0BB
:100E20008111C4C0CF014697820F931FDC018C91C2
:100E3000760102C0F594E7945A95E2F7E0FE09C006
:100E40008111B4C0CF0186569E4F820F931FDC01E3
:100E50008C916F5F7F4FF69668307105B9F68111FE
:100E6000A7C0042E000C550B61E00E947B0280910C
:100E70000E0190910F01A0911001B0911101898391
:100E80009A83AB83BC83E0915403E370EC0FFD2F96
:100E9000F11D81818093DD0310914C03153009F021
:100EA0000CC11092D6031092D70387E38093D80326
:100EB0008EE38093D90389E78093DB031092DC03F0
:100EC0008091120190911301A0911401B09115012C
:100ED00089839A83AB83BC83E0915403E370EC0F66
:100EE000FD2FF11D81818093DD0390911603809188
:100EF000FD02992309F4FCC0143009F4F9C08111F2
:100F0000F7C08091D603873709F40CC1843509F402
:100F100009C18CE08093D80388E18093D90387E5E9
:100F20008093DA0389E78093DB031092DC038091DE
:100F3000160190911701A0911801B09119018983B0
:100F40009A83AB83BC83E0915403E370EC0FFD2FD5
:100F5000F11D81818093DD03809112038111BFC057
:100F60008CE58093D6031092D7038091D603843505
:100F700009F022C18091D803813309F4D6C087E7F4
:100F80008093D60388E38093D7038093D80310928D
:100F9000D90381E38093DA0387E58093DB038DE651
:100FA0008093DC0383E78093DD03BFC080E051CFF3
:100FB0001092D803482F50E00C949E0F80915C0350
:100FC0001092D603882309F44DC040910501509139
:100FD000060161E080E00E947B0210913F02812FB8
:100FE000837039F490911203911146C09CE590935F
:100FF000D60390910E03992309F447C0882319F072
:1010000087E58093D6034091520350E04F5F5F4FD6
:1010100065E080E00E947B0280915003811104C052
:10102000809153038823B9F188E0EAE1F1E0DE0121
:10103000119601900D928A95E1F7E12FE77021E07A
:1010400030E02C0F3D1F2E0F311DF9018081809360
:10105000DA03809101038F5F0E947504806880939A
:10106000DB031ACF89E78093D70384E48093D80306
:1010700081E38093D903B1CF913011F499E3B7CFD5
:10108000923009F0B6CF93E7B2CF882309F4BBCFF3
:101090001092D603B8CF8FE497E00E94E60090E468
:1010A000981B973038F008E09D3020F008E49E321D
:1010B00008F009E40093DA03CCCF143009F015CF1F
:1010C0001092D6031092D7038CE18093D80383E269
:1010D0008093D90388E58093DA038CE4EDCE8130E8
:1010E00011F489E33ECF823009F03FCF83E739CF57
:1010F000813009F048C087E58093D70387E7809364
:10110000D80387E38093D9032EE52093DA032FE3F6
:101110002093DB038093DC031092D6031092DD034F
:10112000992319F0143009F020CF81E00E944E0677
:1011300090901003992009F4C1C08091110381118E
:1011400058C00E94980481E0890D803508F486C655
:10115000109210032B960FB6F894DEBF0FBECDBFD2
:10116000DF91CF911F910F91FF90EF90DF90CF9083
:10117000BF90AF909F908F907F906F905F904F90B7
:101180003F902F900895823059F629E72093D60397
:1011900087E58093D70337E73093D8033DE6309354
:1011A000D9032093DA0321E32093DB038093DC034C
:1011B0008AE78093DD03B4CF873709F0B6CF8091FB
:1011C000D703883309F4B1CF84E58093D6038FE346
:1011D0008093D70381E38093D80399E79093D90351
:1011E0009093DA039EE59093DB0390E39093DC0306
:1011F000DACE813009F0A7CF8091120381111CC093
:1012000087E38093DF039FE39093E00397E5909358
:10121000E1038093E20387E78093E30398E39093ED
:10122000E40323E72093E7039093E8038093E90323
:101230008EE68093EA0387CF813001F589E38093BE
:10124000E00386E78093E10387E78093E20390E37E
:101250009093E30397E39093E40397E59093E70378
:1012600099E79093E80323E72093E9039093EA0337
:101270008093EB0381E38093EC0365CF8FE380934E
:10128000DF0387E38093E00389E78093E10333E79B
:101290003093E30327E72093E40391E39093E5037E
:1012A00047E54093E7038093E8033093E903809395
:1012B000EA032093EB039093EC0345CF153009F03C
:1012C0008BC081E00E944E06C090F602D090F702DB
:1012D000E090F802F090F9022090FC02B090FB023E
:1012E000AAE2B2E090E030E020E09924939407E392
:1012F000302E88E0882E41E050E060E070E0A22EC1
:10130000092F10E026013701022E04C0769467945D
:10131000579447940A94D2F788E0989EF0011124DC
:10132000EA52FC4FE00FF11F40FE2BC080829F5F0E
:10133000983010F0939490E0ED91E11106C0F9011E
:10134000E35FFD4FE081EE2359F12830E0F42A01FC
:101350003B0104C0440C551C661C771CAA94D2F7B0
:10136000B4282F5F3F4F2031310549F62092FC020F
:10137000B092FB0281E38093DA0381E0809308015D
:10138000E9CE3082D4CFF90138972A013B0104C05D
:10139000440C551C661C771CEA95D2F72428E1CF33
:1013A000283060F42A013B0104C0440C551C661C23
:1013B000771CAA94D2F74094B420D3CFF901389780
:1013C0002A013B0104C0440C551C661C771CEA959D
:1013D000D2F740942420C5CF133049F583E780939A
:1013E000DE0397E79093DF0321E32093E00399E383
:1013F0009093E2033FE33093E3038093E4033EE6FC
:101400003093E5038093E6038DE68093E703209312
:10141000E80389E78093E9031092EA039093EB03D2
:1014200088E38093EC0387E58093ED0393CE14303B
:1014300009F0DEC380910503863108F08BCE90E081
:10144000FC01EB5DF54F0C94B6340B0B630B340BC6
:10145000E80AA90AB00BA20CA20CA20CEF0C3B0AE2
:10146000230C8C0A5F0A940D1E0D430D430C630C74
:101470006D0D820CBB0D83EF8093D6038CEF8093B0
:10148000D70381E38093DE0387E58093DF0387E75B
:101490008093E0038AE78093E10388E38093E2038B
:1014A00089E78093E30387E38093E403E0911703E4
:1014B000F0E0E759FC4F448D50E065E075C283EFE2
:1014C0008093D60389EF8093D70381E38093DE0373
:1014D00097E59093DF0397E79093E0039AE7909363
:1014E000E1032DE62093E2038093E30389E78093F1
:1014F000E40383E78093E5032093E6039093E703F7
:1015000090E39093E8038093E903E0911703F0E000
:10151000E759FC4F44A5D0CF83EF8093D6038EEDDF
:101520008093D7038DE68093DE0386E78093DF0305
:101530008EE38093E00381E78093E1038093E203ED
:1015400088E38093E30389E78093E4034091840375
:10155000B3CF83EF8093D6038DEE8093D70383E7D9
:101560008093DE0387E58093DF038FE38093E003BE
:101570008DE38093E10399E39093E20396E79093E0
:10158000E30397E39093E4038093E503E09117036B
:10159000F0E0E759FC4F438541118ECF2B960FB6F3
:1015A000F894DEBF0FBECDBFDF91CF911F910F9199
:1015B000FF90EF90DF90CF90BF90AF909F908F9073
:1015C0007F906F905F904F903F902F900C942202ED
:1015D00083EF8093D60386EE8093D70387E38093CF
:1015E000DE0390E39093DF032EE52093E0039093D6
:1015F000E10399E39093E30396E79093E4038093E8
:10160000E503E0911703F0E0E154FC4F408150E026
:101610004F5F5F4F52CF83EF8093D60386E880936E
:10162000D70333E73093DE0397E79093DF0381E33B
:101630008093E00327E52093E20329E72093E30367
:101640003093E4032093E5039093E6038093E7034C
:1016500040917203411130CF80E38093EB0387E325
:101660008093EC0381E7E0CE83EF8093D6038FEC89
:101670008093D70389E38093DE0386E78093DF03BB
:1016800087E78093E00390E39093E10397E39093DF
:10169000E20397E59093E40399E79093E50323E74A
:1016A0002093E6039093E7038093E80381E380931C
:1016B000E90340917303442379F2413009F46ECF7A
:1016C0004150550BFACE83EF8093D6038BED809378
:1016D000D70397E39093DE0389E78093DF0324E445
:1016E0002093E00331E33093E10323E72093E30306
:1016F00047E74093E4033093E50340917003509132
:1017000071034115510589F42093E60328E32093E2
:10171000E7032EE32093E8032DE62093E9032FE36C
:101720002093EB039093EC037FCE415051094F700F
:1017300055274F5F5F4F65E082E00E947B028091FA
:10174000700390917103019714E0969587951A950F
:10175000E1F78F5F0E94750480688093EB03FACCF9
:1017600083EF8093D6038DEF8093D7038EE580932C
:10177000DE0380E58093DF038CE18093E00384E562
:101780008093E10387E38093E2038FE38093E30395
:1017900081E38093E40389E78093E50300911703D5
:1017A00080E40A3008F021C210E00B541C4FD8012D
:1017B0004C9150E060E082E00E947B02D801EC9105
:1017C0008E2F6CE00E948234B4EF8B9FE00D1124C9
:1017D000EC30D8F4F0E0E151F44F0C94B634FB0B4C
:1017E000FF0B0F0C110C130C150C170C190C1B0C08
:1017F0001D0C1F0C210C99E39093EA0306C099E39A
:101800009093EA0396E79093EB038A3008F089E01F
:10181000E82FF0E0E459FF4F8591949105CE9EE5C5
:10182000EBCF9EE5EDCF99E7E7CF91E7E5CF91E7E5
:10183000E7CF9DE3E1CF9DE3E3CF97E7DDCF97E7E8
:10184000DFCF9CE7D9CF83EF8093D60389EB8093DA
:10185000D70387E38093DE039FE39093DF0391E355
:101860009093E00399E79093E10328E32093E30347
:101870009093E4038093E503E0911703F0E0E759C8
:10188000FC4F44AD19CE8DE38093D60386EE809352
:10189000D70383E78093DE038EE38093DF0398E32F
:1018A0009093E0039DE69093E10399E79093E20320
:1018B0009FE39093E3038093E40381E38093E50344
:1018C00040915E0369CE8DE38093D6038DEE8093C5
:1018D000D70383E78093DE038EE38093DF0398E3EF
:1018E0009093E0038DE68093E10389E78093E20320
:1018F0009093E3038093E40387E38093E5034091AF
:101900005F03DACD8DE38093D60387E88093D70316
:101910002B960FB6F894DEBF0FBECDBFDF91CF91EF
:101920001F910F91FF90EF90DF90CF90BF90AF90FD
:101930009F908F907F906F905F904F903F902F90EF
:101940000C94980423EF2093D603FC01E359FF4F36
:101950002591349120682093D7032EE32093DE0352
:1019600039E73093DF0338E33093E0033FE330930C
:10197000E10339E33093E20330E33093E30331E3EF
:101980003093E4033EE63093E5032093E603FC0145
:10199000E959FF4F259134912093E70387539C4FDA
:1019A000FC01408150E064E082E02B960FB6F89491
:1019B000DEBF0FBECDBFDF91CF911F910F91FF9082
:1019C000EF90DF90CF90BF90AF909F908F907F90DF
:1019D0006F905F904F903F902F900C947B0283EF1D
:1019E0008093D60387EF8093D70383E78093DE034A
:1019F00087E78093DF0391E39093E0039EE3909366
:101A0000E2038093E30397E59093E40390E39093DC
:101A1000E5038093EA0380916903823008F49ACB4E
:101A20009CE79093EB03823009F494CB99E3909375
:101A3000EC03833009F48ECB8EE5F6CC8DE38093F6
:101A4000D6038BED8093D70399E39093DE0388E36D
:101A50008093DF038FE38093E0039093E1039AE7A1
:101A60009093E2038093E3039EE39093E40391E376
:101A70009093E50390915A03992309F48FCD8093B5
:101A8000EC0387E3D1CC8DE38093D6038FEC809376
:101A9000D70389E38093DE0398E39093DF039FE30A
:101AA0009093E0038093E1038AE78093E2038EE55D
:101AB0008093E30390E39093E4032EE32093E50304
:101AC0009093E6038093E70389E78093E80387E533
:101AD0008093E90340916003EFCC8DE38093D603BC
:101AE0009DEF9093D70397E39093DE0320E3209339
:101AF000DF033EE53093E0032093E10323E72093E7
:101B0000E30327E72093E40321E32093E50329E39C
:101B10002093E60326E72093E7039093E80380935E
:101B2000E90340915B0373CD8DE38093D60386E890
:101B30008093D70389E38093DE0398E39093DF03D8
:101B40009FE39093E0038093E1038AE78093E203AD
:101B500080915C03882351F080E38093EA0387E35C
:101B60008093EB0381E38093EC03F4CA89E78093CD
:101B7000EA0384E4F5CF8DE38093D6038FEF80935F
:101B8000D7038EE58093DE038CE58093DF0310920C
:101B9000E00399E79093E10387E58093E20387E709
:101BA0008093E3032DE62093E4039093E5032091D3
:101BB000FE0221110BC087E38093EA032FE32093F9
:101BC000EB038093EC039093ED03C4CA213051F4EE
:101BD0009CE79093EA038093EB0387E38093EC0305
:101BE0008AE722CC8093EB0388E38093EC031CCC40
:101BF000123009F0A7C1809104038823C9F08CE753
:101C00008093E00387E78093E10387E38093E20317
:101C10008AE78093E3038DE68093E70389E7809367
:101C2000E80398E39093E9038093EA0389E398CF6C
:101C300083E78093DF0387E78093E00381E380936A
:101C4000E1038093E20399E79093E30327E5209370
:101C5000E40327E32093E5032DE62093E703909325
:101C6000E80328E32093E9039093EA0399E3909330
:101C7000EB0379CF133008F06DCA30900B038091DD
:101C8000040187FF382E40901703042D10E0E32C49
:101C9000F12CF9E0F41508F460C081E090E06C01EB
:101CA000042C02C0CC0CDD1C0A94E2F7AEEDAA2E87
:101CB000A3E0BA2E8701000F111F01511C4F812C88
:101CC00020E0432D642D882D0E94B804E091090383
:101CD000F0E0E859FF4F85919491D5018D935D0116
:101CE000F801228533852C213D21232B21F0FD0194
:101CF00031978068808383940A5C1F4FF8E08F12CD
:101D0000DFCF06EE13E0EE0CFF1C970121563A4F91
:101D1000790120E0432D642D88E0890D0E94B804EC
:101D2000E0910903F0E0E859FF4F85919491D801C3
:101D30008D938D01F701228533852C213D21232BA5
:101D400021F0FD013197806880839394F6E3EF0ED4
:101D5000F11C28E09212DDCFFDC93701660C771C1B
:101D6000C30101969B878A8766ED862E63E0962ED7
:101D7000C801880F991FDC01A151BC4F5D01000F04
:101D8000111F000F111F0E0D1F1D01511C4F212C83
:101D90007401522CD12CC12CF501EC0DFD1D87894D
:101DA00090E09C010A8402C0359527950A94E2F7D9
:101DB000220F331F2270062C02C0959587950A9436
:101DC000E2F78170282B298720930C0220E0432D15
:101DD000642D852D0E94B804B985B330D1F1F60188
:101DE0007697E00FF11F8081882309F4C9C0E09144
:101DF0000903EE2309F4C4C0F0E0E859FF4F8591D0
:101E00009491F7018087B13039F4D70118968C91FD
:101E10001897886118968C935394FFEFEF1AFF0A76
:101E200026E3C20ED11C30EBC31631E0D30609F015
:101E3000B3CF88E0280E98E0890E911CA0E5AA1A7D
:101E4000AEEFBA0A00551E4FB0E12B1609F482C955
:101E50009FCFF701808589648087DECF8093100350
:101E600079C9113011F0111122C040911703242FAC
:101E700030E0483010F00C94DC0681E090E0A0E007
:101E8000B0E004C0880F991FAA1FBB1F4A95D2F764
:101E90002091FB02822B0C94B706153041F01430D0
:101EA00001F780910503893011F00C94CC068091E4
:101EB0001303882391F0113081F0143071F0809178
:101EC000FB029091490289278093FB028091FC02DA
:101ED00090914B0289278093FC020091FD02011131
:101EE0000C944C078091160381110C944C078CEFD5
:101EF000810F823010F40C944C0780E00E944E0653
:101F000040910701413809F459C8809107038111B4
:101F100055C8111153C8209117032A3008F44EC830
:101F200080910D0310920E03882311F40C94ED069A
:101F300087E78093D603042E000C550B61E080E008
:101F40000C943507113009F095CE81E38093E003BE
:101F500097E59093E10397E79093E20399E39093D9
:101F6000E3032AE72093E4032DE62093E70329E720
:101F70002093E80338E33093E9032093EA0377CE14
:101F8000E985E13009F048CF40CFE6EDF3E098E194
:101F9000DF011D929A95E9F79CE39093E6039EE199
:101FA0009093E70397E79093E80390E39093E90316
:101FB00091E39093EA0387FD08C0482F042E000C9C
:101FC000550B65E082E00E947B020C940A03CF93DC
:101FD000C62FE6EDF3E098E1DF011D929A95E9F74F
:101FE00099E79093E60390E59093E7039093E803D5
:101FF0002CE52093E9039093EA03482F50E065E035
:1020000082E00E947B02CC2319F08DE68093EB03E3
:102010000E940A038091EF028F3F19F08F5F809337
:10202000EF0280ED97E0CF910C94210560E00C94D5
:10203000E70FCF93DF93EC016AE070E080E090E07F
:102040000E94A405811106C08091EE07DF91CF9117
:102050000C9416100E9464058823B1F380E20E945C
:102060004605CE01892F0E9430058C2F0E94300535
:1020700080E00E9430050E94B40064EF71E080E0CF
:1020800090E00E94A4058823F9F2DF91CF91089592
:102090000F931F93CF9318B81092470210924602E5
:1020A0001092480210923C0210923B0210923A02A7
:1020B000EEE5F2E080E9DF011D928A95E9F71092E2
:1020C000EE02EAE2F2E080E1DF011D928A95E9F793
:1020D00010923D0210920B0310923E0210923F02AA
:1020E0000EE412E0C0E061E08C2F0E940B04F801C6
:1020F00011928F01CF5FCA30B1F708E512E0C0E05E
:1021000060E08C2F0E940B04D8011D928D01CF5FDF
:10211000C630B1F780915D03882329F01092110336
:1021200081E080931003CF911F910F9108952AE0D1
:10213000DC011D922A95E9F7FC013A9628E0DF01BF
:102140001D922A95E9F7389628E1DF011D922A951C
:10215000E9F78A962CE0FC0111922A95E9F7089597
:10216000CF93DF9380E00E944E0640E1EEE4F2E080
:10217000DF01842F1D928A95E9F7EEE5F2E080E910
:10218000DF011D928A95E9F71092EE0283E0EAEFF3
:10219000F2E0DF01982F1D929A95E9F7EDE4F3E064
:1021A000DF011D928A95E9F788E1E8E1F3E0DF01BC
:1021B000982F1D929A95E9F7E4E3F3E0DF01982F59
:1021C0001D929A95E9F7E0E4F2E096E0DF011D92B6
:1021D0009A95E9F792E090935E0390935F0391E004
:1021E00090935A032FE020935B0310925D0390932A
:1021F000600390935C0320910203309103032160FC
:102200003093030320930203E4EFF1E0DF011D921A
:102210008A95E9F710923A02EAE2F2E0DF011D92B4
:102220004A95E9F7CFEED3E0CE010E949710E696EB
:10223000B7E0CF34DB07C1F746E050E064E270E07E
:102240008AE693E00E94BC3440E150E060E170E037
:1022500085E893E00E94BC34E5E9F3E080E1DF012A
:102260001D928A95E9F740E150E066E070E085EA6A
:1022700093E00E94BC344AE050E069E070E08FEBEC
:1022800093E00E94BC341092C90381E08093CA039A
:1022900092E09093CB0393E09093CC0394E09093DF
:1022A000CD0325E02093CE0326E020930C029093EB
:1022B000690310927103109270031092720380935D
:1022C0007303109284038FE38093CF038DE5809393
:1022D000D0038FE78093D10384E28093B50386E235
:1022E0008093B60387E28093B70388E28093B803B4
:1022F00089E28093B9038AE28093BA038CE28093E7
:10230000BB038EE28093BC0380E38093BD0382E332
:102310008093BE03DF91CF9108950F931F93CF93C6
:10232000DF93AB01BC0109E610E020E030E083E080
:102330000E94EB05182F882379F083E00E94460560
:10234000C9E6D3E080E00E943005899383E0C23D76
:10235000D807C1F70E94B400812FDF91CF911F9160
:102360000F9108950F931F93CF93DF9308E010E030
:1023700020E030E040E050E0BA0183E00E94EB054D
:10238000182F882379F083E00E944605C1E6D3E048
:1023900080E00E943005899383E0C936D807C1F7F1
:1023A0000E94B400812FDF91CF911F910F9108956A
:1023B0000F931F93CF93DF9381E00E94C10380EFBF
:1023C0009FE70E94191007E010E020E030E040E0B5
:1023D00050EF6FE770E082E00E94EB05882309F47C
:1023E0005CC08091ED07811102C00E94A7006AE0E5
:1023F00070E080E090E00E94A405882309F44DC0BD
:102400000E946405882309F448C02A9882E00E944B
:1024100030050E943705CAE5D3E08E01F8018191AD
:102420008F010E943005F3E001361F07B9F7809154
:10243000F7079091F807A091F907B091FA0707966E
:10244000A11DB11D8093F7079093F807A093F9079A
:10245000B093FA072A9A07E010E020E030E040E06D
:1024600050EF6FE770E083E00E94EB05882369F08E
:1024700083E00E944605199180E00E9430051817FC
:1024800089F08BE08093EE0708C06AE070E080E09E
:1024900090E00E94A4058111EBCF8091EE070E948D
:1024A000161006C083E0C136D80729F70E94B40091
:1024B00081E0DF91CF911F910F910C94D503CF93C1
:1024C00020910503263108F02FC0982F30E0F90144
:1024D000E459FD4E0C94B634B3139A13C313A112EE
:1024E00082122713891389138913EF13BA126D13FC
:1024F000F412D612E313FF130D133D135813D31325
:102500009113081480911703913081F4E82FF0E0C3
:10251000E759FC4F93859F3710F49F5F93870E9484
:10252000670381E080930A03CF9108959F3FB9F735
:10253000E82FF0E0E759FC4F9385992381F3915000
:10254000EDCF813051F4E0911703F0E0E154FC4FFE
:1025500080818F3030F78F5F0BC08F3F11F7E09194
:102560001703F0E0E154FC4F80818823D1F28150C1
:102570008083D7CF813061F4E0911703F0E0E75911
:10258000FC4F848D803168F6848D8F5F848FC9CF36
:102590008F3F39F6E0911703F0E0E759FC4F848D47
:1025A000823008F4BECF848D8150F0CF813069F441
:1025B000E0911703F0E0E759FC4F84A5843608F05A
:1025C000B0CF84A5865F84A7ACCF8F3F09F0A9CF99
:1025D000E0911703F0E0E759FC4F84A5882309F444
:1025E000A0CF84A58A50EFCF813059F48091840325
:1025F000853008F096CF809184038F5F80938403A9
:1026000090CF8F3F09F08DCF80918403882309F408
:1026100088CF809184038150F1CF813041F4809143
:102620006003803170F081E08093EC017DCF8F3FBB
:10263000D1F7809160038230B0F3809160038150C4
:1026400003C0809160038F5F80936003ECCFE091C3
:102650001703EA3008F068CF813041F4F0E0EB5422
:10266000FC4F80818F3708F05CCF75CFF0E0EB54E2
:10267000FC4F8F3F09F478CF54CF80915E039130A7
:1026800089F4813118F48F5F80935E0380915E033B
:1026900018B810924802882331F210924602109224
:1026A0004702C1CF9F3F91F7882381F38150ECCF40
:1026B000813049F480915F03803108F0B4CF8F5F9F
:1026C00080935F03B0CF8F3F09F0ADCF80915F0360
:1026D000823008F4A8CF8150F3CF813061F4E091CB
:1026E0001703F0E0E759FC4F84AD813808F019CFAB
:1026F0008F5F84AF16CF8F3F09F013CFE0911703A0
:10270000F0E0E759FC4F84AD823008F40ACF8150E5
:10271000F0CFF901E753FC4F8081913009F4A2CF4B
:1027200024CF80915D0391E0892780935D03CF9151
:102730000C94D8112091700330917103813061F4B1
:102740002F3F310511F008F0ECCE2F5F3F4F309353
:10275000710320937003E5CE2115310509F4E1CE14
:1027600021503109F4CF80917203913039F48F3FB9
:1027700009F4D7CE8F5F80937203D3CE882309F4F8
:10278000D0CE8150F8CF80917303913039F48F3FD0
:1027900009F4C7CE8F5F80937303C3CE882309F4F7
:1027A000C0CE8150F8CF80915B03913039F48F30E7
:1027B00008F039CF8F5F80935B0335CF882309F40E
:1027C00032CF8150F8CF80915C03C1E0982F9C27D5
:1027D00090935C030E94F603C093EC01A5CE809118
:1027E0006903913039F4843008F09BCE8F5F809379
:1027F000690397CE823008F494CE8150F8CF80914F
:102800005A0391E0892780935A039093EC018CCE70
:102810008091FE02913039F4823008F085CE8F5FCE
:102820008093FE0281CE882309F47ECE8150F8CFBA
:102830003F924F925F926F927F928F929F92AF9250
:10284000BF92CF92DF92EF92FF920F931F93CF939D
:10285000DF934B015C0109E610E020E030E0BC01B1
:10286000A40182E00E94EB05811114C0312C832D5C
:10287000DF91CF911F910F91FF90EF90DF90CF905C
:10288000BF90AF909F908F907F906F905F904F9090
:102890003F900895C401992720E031E06901C81AEA
:1028A000D90A8091ED07811102C00E94A70099E624
:1028B000E92E93E0F92EC9E6D0E08E01CC16DD06B4
:1028C00008F486012801712C612C6AE070E080E038
:1028D00090E00E94A405882349F20E946405382EE6
:1028E000882321F22A9882E00E9430050E94370551
:1028F000F7016F018FEFC81AD80A80810E94300556
:10290000F601C6018E199F098017910790F38091F7
:10291000F7079091F807A091F907B091FA07840D95
:10292000951DA61DB71D8093F7079093F807A093F8
:10293000F907B093FA07C01BD10B2A9AC12CDD24EA
:10294000D3942097E1F409E610E020E030E0B501EF
:10295000A40183E00E94EB05882399F083E00E94A4
:102960004605C9E6D3E002ED13E0F99080E00E944D
:102970003005F81679F08BE08093EE0777CF7F0172
:102980009CCF6AE070E080E090E00E94A405811195
:10299000E5CF6CCF0C171D0741F70E94B40067CF3D
:1029A0003F924F925F926F927F928F929F92AF92DF
:1029B000BF92CF92DF92EF92FF920F931F93CF932C
:1029C000DF934B015C0100E613E020E030E0BC0146
:1029D000A40182E00E94EB05811114C0312C832DEB
:1029E000DF91CF911F910F91FF90EF90DF90CF90EB
:1029F000BF90AF909F908F907F906F905F904F901F
:102A00003F900895C401992720E031E06901C81A78
:102A1000D90A8091ED07811102C00E94A7009FEEA4
:102A2000E92E93E0F92EC0E6D3E08E01CC16DD0648
:102A300008F486012801712C612C6AE070E080E0C6
:102A400090E00E94A405882349F20E946405382E74
:102A5000882321F22A9882E00E9430050E943705DF
:102A6000F7016F018FEFC81AD80A80810E943005E4
:102A7000F601C6018E199F098017910790F3809186
:102A8000F7079091F807A091F907B091FA07840D24
:102A9000951DA61DB71D8093F7079093F807A09387
:102AA000F907B093FA07C01BD10B2A9AC12CDD2479
:102AB000D3942097E1F400E613E020E030E0B50184
:102AC000A40183E00E94EB05882399F083E00E9433
:102AD0004605CFEED3E00FE417E0F99080E00E94C6
:102AE0003005F81679F08BE08093EE0777CF7F0101
:102AF0009CCF6AE070E080E090E00E94A405811124
:102B0000E5CF6CCF0C171D0741F70E94B40067CFCB
:102B1000CF92DF92EF92FF920F931F93CF93DF93A9
:102B20008B01C42E20E131E0482F429FC001439F1A
:102B3000900D11244096909359038093580340E1DF
:102B4000D42E54E1E52EF12CC0915803D0915903B5
:102B5000CE010E941910BE0190E080E0982F872FCF
:102B6000762F66270E941814811104C08091EE0709
:102B70000E941610BE016F5F7F4F709359036093E0
:102B8000580390E080E0982F872F762F66270E94C9
:102B9000D014811104C08091EE070E941610609637
:102BA000D0935903C0935803F80180819181019615
:102BB00091838083CC2079F0880F0E94C50FDA942E
:102BC000D110C2CFDF91CF911F910F91FF90EF9065
:102BD000DF90CF900895B7010E94A234862FEDCFE9
:102BE000EF92FF920F931F93CF93DF9380910A038D
:102BF000882309F448C010920A0380915D03811173
:102C000042C081E00E94C1032091FF0280E191E077
:102C1000289FE001299FD00D11246091000380E1DD
:102C2000689F80011124BE01600F711FCB01809647
:102C30007C010E941910B701FF0C880B990B982F8B
:102C4000872F762F66270E941814811104C0809167
:102C5000EE070E941610BE01600F711F6F5D7F4F5F
:102C6000072E000C880B990B982F872F762F66273D
:102C70000E94D014811104C08091EE070E941610AA
:102C800081E00E94D5038091EC01882371F01092BD
:102C9000EC0180915D03811108C0DF91CF911F91FC
:102CA0000F91FF90EF900C94D811DF91CF911F916D
:102CB0000F91FF90EF900895CF92DF92EF92FF92E5
:102CC0000F931F93CF93DF9300D0CDB7DEB7182FAC
:102CD0001092EF029FB7F8948091EB01811106C02A
:102CE0008CB580618CBD8CB580648CBD8091EB010E
:102CF0008F5F8093EB019FBF6AE070E080E090E01F
:102D00000E94A405882389F08AE50E944605109256
:102D1000F7071092F8071092F9071092FA070E942D
:102D200037058EEE0E9430052A9A6AE070E080E056
:102D300090E00E94A405882309F472C18FE90E94E3
:102D4000460580E00E9430058093F2072A9A82E0CF
:102D50008093EE0788E790E00E9421050E94B2115F
:102D6000811104C08091EE070E94161080916103CA
:102D7000823499F480916203873379F480916303FC
:102D8000803359F480916403873339F4809165036B
:102D9000863519F4112309F438C180E00E94C1037B
:102DA0008FEF0E94C50F80ED97E00E9421051A82E7
:102DB000198210E040E0BE016F5F7F4F812F0E94BB
:102DC00088151F5F1031B1F780E291E190935903AC
:102DD000809358030E94191060E070E281E190E056
:102DE0000E941814811104C08091EE070E941610F1
:102DF00081E291E1909359038093580360E071E27E
:102E000081E190E00E94D014811104C08091EE070E
:102E10000E94161080E191E190935903809358032A
:102E20000E94191060E070E181E190E00E941814A6
:102E3000811104C08091EE070E94161081E191E19A
:102E4000909359038093580360E071E181E190E031
:102E50000E94D014811104C08091EE070E941610C8
:102E60008FEF0E94C50F82E48093610387E3809314
:102E7000620390E3909363038093640386E58093F9
:102E8000650382E38093660390E080E00E9419105E
:102E900008E010E020E030E040E050E0BA0182E0DD
:102EA0000E94EB05882309F460C08091ED07811131
:102EB00002C00E94A7006AE070E080E090E00E94FB
:102EC000A405882309F451C00E946405882309F4ED
:102ED0004CC02A9882E00E9430050E94370581E6A6
:102EE000C82E83E0D82E09E613E07601F701819120
:102EF0007F010E9430050E151F05C1F78091F7076D
:102F00009091F807A091F907B091FA070896A11DD2
:102F1000B11D8093F7079093F807A093F907B0933A
:102F2000FA072A9A08E010E020E030E040E050E0A4
:102F3000BA0183E00E94EB05882379F083E00E94C8
:102F40004605F60111916F0180E00E9430051817C7
:102F500089F08BE08093EE0708C06AE070E080E0C3
:102F600090E00E94A4058111E9CF8091EE070E94B4
:102F7000161005C0CE14DF0421F70E94B40082E0D1
:102F800080935E0380935F0381E080935A039FE008
:102F900090935B0310925D038093600380935C03C6
:102FA0000E94D8110E94B211811104C08091EE07D5
:102FB0000E941610809161038234A1F48091620313
:102FC000873381F480916303803361F480916403DB
:102FD000873341F480916503863521F4809166033F
:102FE000823319F082E60E9416108091EF02882346
:102FF00049F061E00E94E70F80ED97E00E94210513
:103000001092EF0280E00E94D5030F900F90DF91A5
:10301000CF911F910F91FF90EF90DF90CF90089587
:103020008FE70E94161096CEEF92FF920F931F9398
:10303000CF93DF93E82EC62F0E94F01580911303E3
:10304000882319F0CC2309F4A3C081E080935103B5
:10305000F090010380E191E0F89EE001F99ED00D2F
:10306000112480E1E89EA0011124C40FD51FA09671
:10307000D093EA01C093E901BE010D2E000C880B2C
:10308000990B982F872F762F66270E948D1181111B
:1030900004C08091EE070E9416102196D093EA0199
:1030A000C093E901AE0170E060E0762F652F542FE8
:1030B000442700E613E020E030E083E00E94EB05C7
:1030C000811144C08091EE070E941610E092000327
:1030D0008091FF02F816E1F007E010E020E030E018
:1030E00040E050EF6FE770E083E00E94EB0588233B
:1030F000F1F183E00E944605CAE5D3E080E00E943A
:103100003005899383E0C136D807C1F70E94B40027
:10311000F092FF0280910403882371F181E090E036
:10312000A0E0B0E004C0880F991FAA1FBB1FFA944B
:10313000D2F7909303038093020310925103DF911F
:10314000CF911F910F91FF90EF90089583E00E941F
:103150004605CFEED3E00FE417E080E00E94300593
:1031600089930C171D07C9F70E94B400AFCF809157
:10317000EE070E941610CCCF81E090E0A0E0B0E016
:1031800004C0880F991FAA1FBB1FEA94D2F7D1CFA2
:1031900081E080935003D3CF0F931F93CF93DF939E
:1031A0001092520310920003809301038093FF0258
:1031B00060E080E00E94141807E010E020E030E0BA
:1031C00040E050EF6FE770E083E00E94EB05811173
:1031D00008C08091EE07DF91CF911F910F910C9461
:1031E000161083E00E944605CAE5D3E001E613E02D
:1031F00080E00E94300589930C171D07C9F7DF9105
:10320000CF911F910F910C94B4002F923F924F9247
:103210005F926F927F928F929F92AF92BF92CF9266
:10322000DF92EF92FF920F931F93CF93DF9300D023
:1032300000D000D0CDB7DEB706E3212C312C210120
:10324000239411E08091F502882309F4B7C5809199
:103250001303882309F4A8C38090220290902302CC
:10326000A0902402B0902502C090F602D090F70200
:10327000E090F802F090F9028C149D04AE04BF04B3
:10328000B1F11A8219822981D701C601022E04C028
:10329000B695A795979587950A94D2F7B501A4019D
:1032A000022E04C076956795579547950A94D2F7F4
:1032B000482740FF0BC080FF09C060E086EF820F07
:1032C0002A3010F461E089810E940B0429813A813F
:1032D0002F5F3F4F3A83298320313105A1F6C092F9
:1032E0002202D0922302E0922402F0922502E09181
:1032F0002102F0E0E25BFD4F808190E00196809535
:10330000909581708093200280913E0281110DC0C2
:1033100090912002911109C090918403955F909340
:103320001F0210921E0210921D0290911F029923FB
:1033300029F090911F02915090931F0290911F02CB
:10334000943011F410931E0290911F02913011F4E9
:1033500090931D02882311F0833021F48091200284
:10336000882349F080911E02811105C080911D02C1
:10337000882309F4CBC042E251E05A834983E981B2
:10338000FA81A191FA83E9832A2F30E03E832D83CD
:103390006090F6027090F7028090F8029090F90227
:1033A0000A2E04C096948794779467940A94D2F76F
:1033B00031E06322772488249924ED81FE81E25B49
:1033C000FD4F208130E040910B0350E06A01CC0CAE
:1033D000DD1C56016FEFA61AB60AAA3008F029C103
:1033E000029FF001039FF00D1124E151FC4F8D81EC
:1033F0009E81E80FF91F808190E0BC0102C07595A5
:103400006795AA94E2F7660F771F627002C09595E0
:103410008795CA94E2F78170B62EB82A09F46EC077
:103420009BE1929FF001939FF00D1124E40FF51F93
:10343000EE0FFF1FE750FC4F8081918102C09695EF
:103440008795AA95E2F78170992720913E02211174
:1034500045C020912002211146C0AD81BE81A759EF
:10346000BC4F7D0167286828692809F0D9C00E94EF
:10347000BE31F701D4A424E630E040E050E00E94E1
:1034800016326D15D8F1F701E45BFF4FA08067019C
:10349000F6E5CF0ED11CEB2DBB0CFF0BE253FC4F1E
:1034A000D6012C9140816A2D80E90E944D03ED8167
:1034B000FE81E65DFD4FFE83ED838081882339F038
:1034C000D6012C9140E06A2D80E80E944D03F7015F
:1034D00084AD8F5FAD81BE818C9310C0233019F411
:1034E000009709F0B6CF20911E022111B6CF20918E
:1034F0001D02222319F0892B09F0AFCF29813A81CF
:103500002253314009F03BCF10921D0250913E02F0
:103510005B8380910E03882309F4E6C15111E4C155
:1035200010920C0282E0F82E93E0E92E60910C02DA
:10353000698380913A02681708F0D4C1609117033B
:103540008981E82FF0E0EC50FE4F708540910B032D
:10355000262F30E0D901A25BBD4F8C91882309F45E
:1035600040C181509091040197FF492FA0910C0315
:10357000A11140E06A3008F067C1772309F44BC01D
:1035800090E050E0440F551F52014101042E04C049
:10359000880C991CAA1CBB1C0A94D2F7B82DB095B4
:1035A000089FF001099FF00D1124E151FC4FE20F3B
:1035B000F31F8080B8216A016FEFC61AD60A520144
:1035C000410104C0880C991CAA1CBB1CCA94D2F7E8
:1035D0008094B821B083109301016091D1037617D4
:1035E00008F40BC1E092010110930A03E09101017C
:1035F0006E2F70E0A11109C1089FF001099FF00D25
:103600001124E151FC4FE20FF31F01C0660F4A95F0
:10361000EAF76B2B6083E981EF5FE0930C0286CFC2
:10362000ED81FE81E35FFD4FDC968C918F5F80839F
:1036300065CFED80FE80BAE0EB1AF108B701660FA6
:10364000771F660F771F029FC001039F900D112403
:10365000860F971F81519C4F840F951FFC01F289A3
:10366000FB83FF2309F44ACF4BE1429FC001439FF4
:10367000900D11248E0D9F1DFC01EE0FFF1FE75EC4
:10368000FB4F2081880F991FFC01E151FC4F83A55E
:1036900090E0AC010A2C02C0559547950A94E2F7D8
:1036A000440F551F42700C2C02C0959587950A94C3
:1036B000E2F78170482B4C8340913E02411109C0D2
:1036C0005C81533031F4ED81FE81E65DFD4F61E0B8
:1036D000608330E0C90102C095958795AA94E2F70E
:1036E000880F991F827002C035952795CA94E2F71A
:1036F0002170B82EB22A09F401CF442329F0809119
:103700001E02882309F4FACE8D819E8187599C4F31
:103710006C0167286828692809F059C00E94BE31E9
:10372000D6019C96AC9024E630E040E050E00E9448
:1037300016326A1508F4E2CEEB2DBB0CFF0BE253F8
:10374000FC4F7080F701E05CFD4F5F0160812D81CF
:103750003E81265D3D4F3E832D83662361F0D90176
:103760008C91833840F0F601EA5AFF4F208140E007
:1037700080E80E944D034601B6E58B0E911CF401D2
:103780002081472D6B8180E90E944D03D5016C910A
:10379000662359F0ED81FE818081823830F4D401B6
:1037A0002C9140E080E80E944D032B81F50120839D
:1037B0003C81313029F4EFEFAD81BE81EC939ECE98
:1037C000D601DC968C918F5FED81FE8130CF2D810B
:1037D0003E81235F3D4FDC01DC968C918F5FF901C8
:1037E00026CFD901A759BC4F5C968C9181504423B8
:1037F00011F04150B7CE43E0B5CE6091D0037617BB
:1038000008F4F2CEF0920101EFCE089FA001099FCB
:10381000500D112441515C4F240F351FCB01880FEF
:10382000991F880F991FAB01F4E0440F551FFA95BB
:10383000E1F7842BE82BA6E0660F771FAA95E1F746
:103840006E2BD9016C93E7CE772309F4E4CE9081F7
:103850002A503109F901E759FC4F91831093010176
:103860005091D1037517B8F1E092010150E0F901D0
:10387000EE0FFF1FEE0FFF1F089FE00DF11D11243B
:10388000E151FC4FE40FF51F928B440F551FF901D6
:10389000BBE1B89FE00DF11D1124EE0FFF1FE75EA5
:1038A000FB4F23E030E0042E01C0220F0A94EAF718
:1038B000209590812923C090010101C0CC0C4A952C
:1038C000EAF72C292083AA2319F06A500E942A02C1
:1038D00010930A03A0CE5091D003751738F2F092DE
:1038E0000101C4CF10923A0220915E03222329F1F4
:1038F000FB81FF2311F0F33001F530E080914702A6
:1039000090E00196B9010E94A234809347022150B1
:1039100031098217930721F480915F038093460257
:103920008091460291E0811101C090E0909348029D
:10393000882319F081508093460272E2E72E71E0ED
:10394000F72ED7019D917D01E92FF0E0FA83E983FD
:10395000E65DFD4F80818823B9F08150808381111D
:1039600013C09A3008F083C089819A8187599C4F8F
:10397000FC01EA5AFF4F845B9F4F208140E0DC014D
:103980006C9180E80E944D03E981FA81E35FFD4F6D
:10399000FA83E9838081882311F08150808322E3B8
:1039A00031E02E153F0569F620913E02233009F0E3
:1039B000E8C01092F3011092210290E080E0FC0137
:1039C000E759FC4F448D3091F301341728F4348DBE
:1039D0003093F3018093210201968031910579F7AC
:1039E00030911303332309F46EC0E0912102A091BA
:1039F0002102B0E0A759BC4F5C964C91F0E0E25B2D
:103A0000FD4F808190E001964817190611F00CF0E7
:103A10005AC080910B0390E0019640910201481733
:103A2000190611F00CF04FC0409150034423B1F13E
:103A3000109250031093530310923C0210923B02D9
:103A40003091F201EEE4F2E090E080E05FE0DC0132
:103A5000A759BC4F5C966C916031F1F05083019690
:103A600031968031910599F73093F2018AC0E9814E
:103A7000FA81EA5CFD4F6F016081662309F484CF0F
:103A8000E981FA81E154FC4F208140E080E80E9406
:103A90004D03D6011C9278CF342FE1CF8091720371
:103AA000882389F070911203723068F460913B02B0
:103AB0006F5FA62FA150BB0B8150990BA817B907B8
:103AC00021F060933B0224E060C010923B028091A1
:103AD00073034091F201813009F4BDC090913C0222
:103AE0009F5F90933C02882351F1713041F15091D6
:103AF0003C028150990B5817190634F580917003D8
:103B000090917103009709F096C0809100038F5F38
:103B1000809352031093530390E080E05FE0FC0138
:103B2000E759FC4F648D603109F493C0FC01E25BFE
:103B3000FD4F508301968031910589F720C0109286
:103B40003C028823D9F2D3CF10923C02809100032B
:103B50008F5F809352031093530390E080E05FE007
:103B6000FC01E759FC4F648D603109F462C0FC012F
:103B7000E25BFD4F508301968031910589F74093B8
:103B8000F2012F5F263008F096C020933E0210927B
:103B90002702109226021092290210922802E09128
:103BA0002102F0E0E25BFD4F808190E0019680957C
:103BB000909581708093200280913E02E0911703DE
:103BC000811104C080912002882321F080911E027F
:103BD000882339F0AE2FB0E0A25BBD4F8C9180936B
:103BE000F101F0E0E759FC4F948D8091F1018917C4
:103BF000A0F48091F101883008F0CEC08091F101ED
:103C0000A201910104C0220F331F441F551F8A9542
:103C1000D2F7309327022093260210921E020E94B0
:103C20004404109308018091F50281508093F502BD
:103C300009CB432FA0CF5FEF580F5F705093520313
:103C4000019764E0969587956A95E1F78093010363
:103C500061CF432F6FCF80917003909171030097D4
:103C6000D1F4809100038F5F80935203109353032C
:103C7000EEE4F2E090E080E05FE0DC01A759BC4FA9
:103C80005C966C916031A9F0508301963196803139
:103C9000910599F774CF5FEF580F5F7050935203FF
:103CA000019754E0969587955A95E1F78093010323
:103CB000DDCF432FEACF10923E02B090F201409147
:103CC00069033091020120910B03C0900401D09050
:103CD0000C03EEE4F2E0FA83E983F0E0E0E0CF01E8
:103CE00087599C4F7C01BB2039F0DC015C968C919C
:103CF0008150A981BA818C93D7015C966C91A9817E
:103D0000BA818C9190E0019670E00E94A234A98162
:103D1000BA818D93BA83A983D7015C968C91803147
:103D200040F431E041E0222321F0D12CCC24CA948C
:103D300020E03196E031F10591F620930B03C0921B
:103D40000401D0920C034093690330930201109256
:103D5000F201E0912102F0E0E25BFD4F808180936F
:103D60003F02E0912102F0E0E25BFD4F8081811192
:103D70000ECF80911303882309F409CF413049F015
:103D8000822F90E00196632F70E00E94A23480930E
:103D90000B0340930201FBCE8091F1018850990BF7
:103DA000A201910104C0220F331F441F551F8A95A1
:103DB000D2F730932902209328022FCF26960FB6F0
:103DC000F894DEBF0FBECDBFDF91CF911F910F9151
:103DD000FF90EF90DF90CF90BF90AF909F908F902B
:103DE0007F906F905F904F903F902F9008958091BB
:103DF000F502882319F00E940519F9CF8091EE028F
:103E0000882361F1E091EE02F0E0E35AFD4F60811A
:103E10008FE497E00E945901E091EE02F0E0E25A4F
:103E2000FD4F67A58FE497E00E945901E091EE02F3
:103E3000F0E0E354FD4F80818F3F51F0E091EE02BE
:103E4000F0E0E354FD4F60818FE497E00E94590158
:103E50008091EE0281508093EE02D0CF0895CF93EF
:103E60001092130380E00E94C1038FE497E00E9448
:103E7000AB0168E270E080E090E00E94F0010E94F7
:103E8000F01568E270E080E090E00E94F00180911F
:103E90005A03882341F080915C03882321F08CEF42
:103EA00090E00E94A6018FE497E00E94AB01C0E081
:103EB00061E08C2F0E940B04CF5FCA30C9F7C0E0CD
:103EC00060E08C2F0E940B04CF5FC630C9F78FE4EF
:103ED00097E00E94AB0164E170E080E090E00E9416
:103EE000F0010E9477030E94F71E8FE497E00E9482
:103EF000AB010E9481038FE497E00E94AB018091A7
:103F00005003882329F01092500381E080935303DB
:103F100080E00E94D503C1E0C093080164E170E035
:103F200080E090E00E94F001C093F502CF910895E7
:103F3000CF93C091130380E00E94C10381E080937E
:103F400013030E9448100E947703EEE4F2E01192FE
:103F500082E0EE35F807D9F780916903809302017A
:103F600080915A03882341F080915C03882321F0DB
:103F70008AEF90E00E94A601CC2371F0EEE5F2E01A
:103F800080E9DF011D928A95E9F71092EE0281E047
:103F90008093F5020E9405190E94F71EC1E0C093AC
:103FA000F5020E94440480E00E94D50310924C0266
:103FB00010924B0280E890E090934A02809349026D
:103FC000C0930801C09348028FEF88B9109247024E
:103FD00080915F0380934602CF9108958FE497E02C
:103FE0000E941701181619060CF0B0C080915703F3
:103FF000882351F08FE497E00E94F500873F09F095
:10400000A5C01092570308958091EF0181115AC005
:104010008FE497E00E94F500883FE9F480915C030B
:10402000811194C080915A03882321F088EF90E099
:104030000E94A6010E94F71E8091F5028F5F809377
:10404000F50280914802882321F08FEF88B90C9403
:10405000320418B8FCCF8A3F51F480915A03882368
:1040600021F08AEF90E00E94A6010C94981F8C3FEB
:1040700051F480915A03882321F08CEF90E00E9444
:10408000A6010C942F1F8B3F49F480915A0388237B
:1040900009F45CC08AEF90E00C94A601803F21F403
:1040A00081E080935703089592E0980F923008F4CE
:1040B0004DC0863F09F44AC091E09093EF01809390
:1040C000ED0108958130C9F48FE497E00E94F50076
:1040D0008093EE018091ED01807F803919F030F4FA
:1040E000803841F482E08093EF010895803AD1F363
:1040F000803BC1F31092EF010895823039F58FE4CF
:1041000097E00E94F5001092EF012091ED01922FAF
:10411000907F9039D9F490910E039923B9F0909142
:104120001303992399F0882389F090913A029830EB
:1041300068F4E92FF0E0EC50FE4F3091EE0130834F
:1041400080872F70208B9F5F90933A0208951F9273
:104150000F920FB60F9211242F933F934F935F93BB
:104160006F937F938F939F93AF93BF93EF93FF933F
:104170008FE497E00E943701FF91EF91BF91AF91DB
:104180009F918F917F916F915F914F913F912F916F
:104190000F900FBE0F901F9018951F920F920FB6A1
:1041A0000F9211242F938F939F93EF93FF93E0919E
:1041B0005F07F09160078081E0916507F0916607E5
:1041C00082FD1BC09081809168078F5F8F73209163
:1041D0006907821741F0E0916807F0E0E15BF84F72
:1041E000958F80936807FF91EF919F918F912F9109
:1041F0000F900FBE0F901F9018958081F4CF1F92E3
:104200000F920FB60F9211242F933F938F939F938A
:10421000AF93BF938091D2039091D303A091D40325
:10422000B091D5033091F00226E0230F2D3758F5D9
:104230000296A11DB11D2093F0028093D2039093AA
:10424000D303A093D403B093D5038091F10290914E
:10425000F202A091F302B091F4020196A11DB11DEA
:104260008093F1029093F202A093F302B093F402D0
:10427000BF91AF919F918F913F912F910F900FBE62
:104280000F901F90189529E8230F0396A11DB11DCB
:10429000D2CF1F920F920FB60F9211242F933F93FC
:1042A0004F935F936F937F938F939F93AF93BF933E
:1042B000EF93FF9380915C038823D9F180915A0397
:1042C0008823A9F080911303882389F08091F0015D
:1042D0008F5F8093F001909160038091F0018917C6
:1042E00030F088EF90E00E94A6011092F0010E9449
:1042F000F71E8091F5028F5F8093F502809148024E
:104300008823A9F08FEF88B90E943204FF91EF91C2
:10431000BF91AF919F918F917F916F915F914F91DD
:104320003F912F910F900FBE0F901F90189518B8C6
:10433000EBCF81E00E94C1030E94EE1F81E00E944A
:10434000D503E4CFEFE4F7E01382128288EE93E026
:10435000A0E0B0E084839583A683B78386E391E0F1
:104360009183808385EC90E09587848784EC90E04E
:104370009787868780EC90E0918B808B81EC90E032
:10438000938B828B82EC90E0958B848B86EC90E013
:10439000978B868B118E128E138E148EECEEF7E0B7
:1043A000138614861586168681E080830895CF9340
:1043B000DF93CDB7DEB76A970FB6F894DEBF0FBEB6
:1043C000CDBF789484B5826084BD84B5816084BD9E
:1043D00085B5826085BD85B5816085BD80916E00A3
:1043E000816080936E0010928100809181008260D4
:1043F0008093810080918100816080938100809111
:1044000080008160809380008091B10084608093FF
:10441000B1008091B00081608093B00080917A00FB
:10442000846080937A0080917A00826080937A0021
:1044300080917A008E7F80937A0080917A008068E4
:1044400080937A001092C1001FEF17B918B880E668
:1044500090E09093060180930501E0915F07F09151
:10446000600782E08083E0915B07F0915C07108237
:10447000E0915D07F0915E078FE1808310926707FE
:10448000E0916307F091640786E08083E091610723
:10449000F0916207808180618083E0916107F091F3
:1044A0006207808188608083E0916107F0916207F4
:1044B000808180688083E0916107F091620780814C
:1044C0008F7D80838FE497E00E94AB010E944810AB
:1044D0000E9481038FEE84B915B91AB985B1836042
:1044E00085B98BB18F718BB98AE80E94EE0280E4A6
:1044F0000E94EE02289840EC60EC80EC0E94C3021F
:104500008BB18F718BB910E0299890E080E00E9408
:104510002105299A1F5F1038B9F7289A0E94B01018
:1045200080E480937C0080917A00806480937A009C
:1045300080917A0086FDFCCF6091780070917900BF
:10454000072E000C880B990B6115710581059105EB
:1045500011F00E940D3204E110E01C830B831D82D8
:10456000C12CD12C7601812C912C54018A94412CA0
:10457000512C32014394B6ED2B2EB3E03B2E81013A
:104580002D81211119C00E94BE31A50194010E9404
:104590001632D8016C930E94BE31A50194010E948D
:1045A0001632F80160870E94BE31A50194010E9475
:1045B0001632D80150966C930F5F1F4FB3E00E3D3B
:1045C0001B07F1F60E94BE31A50194010E9416322C
:1045D0006093FA020E94BE31A50194010E94163236
:1045E0006093FB020E94BE31A50194010E94163225
:1045F000E62F2091FA023091FB0290E080E0B701B3
:10460000A601082E04C076956795579547950A949C
:10461000D2F740FF0EC0D1011C92B301A201082EB7
:1046200004C0440F551F661F771F0A94D2F74095A8
:104630002423DC011896B701A60104C0769567957E
:1046400057954795AA95D2F740FF0FC0D10118960C
:104650001C92B301A201082E04C0440F551F661F0F
:10466000771F0A94D2F740953423DC015096B701A6
:10467000A60104C07695679557954795AA95D2F7F8
:104680004F8B588F698F7A8F40FF0FC0D1015096A2
:104690001C92B301A201082E04C0440F551F661FCF
:1046A000771F0A94D2F74095E4230196BFEF2B1AA7
:1046B0003B0A8830910509F0A2CF3093FB02E093CA
:1046C000FC022093FA020E940A038B819C810E94C3
:1046D00021050E94BE312AE030E040E050E00E9417
:1046E000163268307105810591050CF44BC10B81C0
:1046F0001C810C5011091C830B836EE170E080E07B
:1047000090E00E94F00111E01D830E94BE3128E17B
:1047100030E040E050E00E941632D301C20104C0F4
:10472000880F991FAA1FBB1F6A95D2F7C82AD92ADA
:10473000EA2AFB2A2FEFC216D206E206F10409F09C
:104740001ACF80E00E945C1680E00E94CC18809115
:10475000F5028F5F8093F50290915C0381E08927D9
:104760000E94F6038091570381110C9428318091A7
:104770005C03811102C00E940519809153038823B4
:1047800069F061E0809152030E9414181092510365
:1047900010925003109253030E947703289842E42A
:1047A00062E482E40E94C3021AB810924F0310928E
:1047B0004E0310924D0350E040E0F0E0E0E080E076
:1047C00020E060E02998C12CD12C7601C3940E2EF4
:1047D00004C0CC0CDD1CEE1CFF1C0A94D2F74D9BD0
:1047E000D3C06C294E9BD4C02C294F9BD5C08C299B
:1047F000299A3196E830F10529F7042E01C0660F99
:104800000A94EAF790914D03692B60934D03042EAF
:1048100001C0220F0A94EAF790914E03292B2093AE
:104820004E03042E01C0880F0A94EAF790914F03BB
:10483000892B80934F034F5F5F4F4430510509F040
:10484000BCCF8FEF8AB9289A4090510370914C03E6
:104850006091150330913003409114034D8B5091BA
:1048600017035F8380910701898B909116039987C5
:10487000A0910801AB8390E080E0AA24A394662471
:104880006394712C082E02C0660C771C0A94E2F720
:10489000C12CD12C7601C394082E04C0CC0CDD1C95
:1048A000EE1CFF1C0A94D2F7CB86BC2CB094EDE42E
:1048B000F3E0FE83ED83FC01EC5CFC4FAC0101E313
:1048C00013E01C8B0B8B20E01EEF180F1D87DC0103
:1048D000A85EBC4FB88BAF87AD81BE81ED90BE8323
:1048E000AD83F12CE620F7200B891C890F5F1F4F49
:1048F0001801DF0118964D01EF2809F492C14420F8
:1049000041F021118EC1823008F08BC1753009F45D
:1049100088C1F080BFEEBF1510F0F394F082E08103
:10492000E03F58F4211153C0753009F450C0843071
:1049300008F44DC0EA3108F44AC0EB89FC89F080E4
:10494000EF2DF0E0E621F721EF2B09F040C03B8589
:104950003F29AB89BC893C93211121C07530F9F006
:10496000BD85B230E0F4EF85F889A082FB20F0929B
:10497000310321E03C8A2B8AF401485F5F4F30E02D
:1049800061E0AACF1D82C1CE9C2D909569232ACFCC
:104990009C2D9095292329CFC0948C2129CFFA01F1
:1049A000E85EFC4F62E0F62EF082222311F37111D3
:1049B0000CC00F810A3048F01989113831F439855B
:1049C000311103C0198A61E06B8330E061E02F5F31
:1049D0003C8A2B8AF401485F5F4F233009F07CCF7B
:1049E00001968830910509F04ACFFB81F0930801C8
:1049F000898880920701609315039D889092140323
:104A0000309330030E94EE1F109109011F5F109335
:104A10000901183008F49FC080910801882331F003
:104A2000109208010E945F060E940A03103108F4E8
:104A300092C081E08093090180914C03853009F098
:104A400035C14091F6025091F7026091F8027091E1
:104A5000F90220910801E8E1F3E090E080E0308580
:104A600031503230F0F401E010E020E030E0082E68
:104A700004C0000F111F221F331F0A94D2F76A01CE
:104A80007B01082E04C0F694E794D794C7940A9447
:104A9000D2F7C0FCF0C0402B512B622B732B108639
:104AA00021E030893150323020F59C01285F3F4FA2
:104AB000C12CD12C7601C394022E04C0CC0CDD1C79
:104AC000EE1CFF1C0A94D2F74A015B0104C0B694A5
:104AD000A794979487942A95D2F780FED5C0C09466
:104AE000D094E094F0944C215D216E217F21108AB6
:104AF00021E0019631968830910509F0B0CF4093BE
:104B0000F6025093F7026093F8027093F902209333
:104B1000080190911F039923A1F080910F03813028
:104B200009F0B7C0E8E1F3E098E1DF011D929A9542
:104B3000E9F71092FB021092FC0280930801109298
:104B40004C0380910801882331F0109208010E94E3
:104B50005F060E940A03809107018138E1F14091CC
:104B6000320350E02091330330E0E0911703EA5024
:104B7000FF0BEE0FFF1FEE0FFF1F8091EE03E80FFC
:104B8000F11DE151FC4F90E080E0AEEFB82FBA018B
:104B9000082E02C0759567950A94E2F760FF03C07E
:104BA000AE3FC9F4A289B90102C075956795BA955F
:104BB000E2F760FF06C0AE3F71F4DF01AE53BE4FB7
:104BC000AC910196F6968830910501F7AE3F19F445
:104BD00081E88093070180915503909156030196D7
:104BE0008C3A5DE0950710F00C94223190935603B7
:104BF0008093550380915503909156036AED70E0C0
:104C00000E948E346093540380E090E0892B09F475
:104C1000A9CD0E942301882309F4A4CD0E9400009D
:104C2000A1CDC080AB89BC895C90B9E1BC15B8F45A
:104C3000FD88F1101EC08A01085E1C4F78011FEE2E
:104C40001C1530F0C52CD12CC620D720CD2869F0FA
:104C500003E0311101C004E0D7010C9361E0108240
:104C60005B20EB89FC895082B2CED701AC9231E057
:104C7000F5CF1D8AF4CF00951095209530954023EF
:104C80005123622373230BCF4C295D296E297F2981
:104C90002ECF913019F0923009F453CF811151CFBA
:104CA00081E080930F0310921F034BCF8090150378
:104CB0008B82882009F445CF109215038091180348
:104CC0008823F9F0813009F0D0C380911303882341
:104CD00009F4C3C380911603882309F4B7C38091F4
:104CE00012038F5F80931203833010F0109212032F
:104CF00081E0809311038093100380930F0310923F
:104D00001803809119038823A9F08091160381115B
:104D100011C080914C03843069F080915C0388233A
:104D200021F010920E030E942F1F1092190381E8A8
:104D30008093070180911A03882309F415C180919B
:104D40001603882309F498C07091170326EF270FE4
:104D5000B0906903BA94872F90E041E050E0072EAD
:104D600002C0440F551F0A94E2F7A42E30E0F90167
:104D7000EE0FFF1FEE0FFF1F220F331F60E08F01AA
:104D800001511C4F3801D901A151BC4F1D018F01A8
:104D90000E5E1F4F1A870987D9019A96BC87AB8789
:104DA0003E862D86FC01E151FC4FFE83ED83988BFE
:104DB0008F872A0140945094E65DFC4FF887EF837B
:104DC000862F90E07A3008F054C39C01220F331FE5
:104DD000A3E0EA2EF12C01C0EE0C2A95EAF79E2CF6
:104DE000AD81BE812C912E21FC01EE0FFF1FE750FB
:104DF000FC4F30813A21AF85B889A151BC4F812C3D
:104E00000C91D6961C91D6971027192110271C9328
:104E1000C6A8D7A8C422D52200811181042115215A
:104E20000C291D29118300838394D696F6960FE0F2
:104E30008012E6CFAF81B885EC912E272E21E22794
:104E4000EC93880F991FDC01AD5DB84FED91FC919B
:104E50001197E421F521832F90E084239523E82BFB
:104E6000F92BED93FC936F5FB61608F0A9CF81E0A4
:104E700080930A0380930F0380911A03813009F015
:104E800071C09091160391116DC08091070120911E
:104E90004C03813809F41CC321111AC3E091170394
:104EA000EA3008F41BC300910D0310910C03B0907D
:104EB000EE0330E020E044244394512CEA50FF0BF1
:104EC0004F01880C991C880C991C46E3A42EAF0155
:104ED00046595C4F1A016201022E02C0CC0CDD1C47
:104EE0000A94E2F7B901A1E3B3E0011108C01196F9
:104EF0004C91119750E04C215D21452B21F1712CF3
:104F0000A69EA001A79E500D1124480D591D415188
:104F10005C4F111101C07B2C7A01E70CF11CF701E9
:104F20006288662051F06A94628AF1016082911170
:104F300004C084380CF081509B81112321F07394BC
:104F4000F3E0F71530F71196685F7F4F43E0A33326
:104F5000B40759F62F5F3F4F2830310509F0BBCF1A
:104F60008093070110921A0380911B03882309F490
:104F700021C180911603882309F4A2C0A0901703D1
:104F800026EF2A0D609069036A948A2D90E041E033
:104F900050E00A2C02C0440F551F0A94E2F7742E09
:104FA00030E0B901660F771F660F771F220F331F9E
:104FB000B12CDB01A151BC4FBE83AD83F901E1519E
:104FC000FC4F1F018B010A5F1C4F18870F83B9012B
:104FD000625E7C4F7A876987FC87EB878C01015181
:104FE0001C4FD801A65DBC4FBE87AD87FC01EC50BD
:104FF000FD4FF88BEF872A01409450948B2D90E061
:10500000F9E0FA1508F47AC29C01220F331F73E00D
:10501000E72EF12C01C0EE0C2A95EAF78E2CAD8517
:10502000BE852C912E21FC01EE0FFF1FED5DF84F88
:1050300030813721AF85B889A151BC4FFC01EE0FFB
:10504000FF1FE351F94F912CD6967C91D6976C9126
:10505000672768216727D6966C93D697C080D18042
:10506000C422D52266A977A9642175216C297D29DE
:1050700077AB66AB9394D697F6976FE09612E4CF32
:10508000D8016C9126272E2162276C93880F991FD7
:10509000FC01E750FC4F6081718164217521832FF1
:1050A00090E084239523682B792B71836083B394DC
:1050B0006B1408F0A3CF81E080930A0380930F0361
:1050C00080911B03813009F073C0909116039111F8
:1050D0006FC020914C0380910701813809F440C2D0
:1050E00021113EC2E0911703EA3008F43FC200915B
:1050F0000D0310910C03B090EE0330E020E0442447
:105100004394512CEA50FF0B4F01880C991C880CDA
:10511000991CA6E3AA2EAF0146595C4F1A01620101
:10512000022E02C0CC0CDD1C0A94E2F7B901A1E307
:10513000B3E0011108C011964C91119750E04C2139
:105140005D21452B31F1712CA69EA001A79E500D2B
:105150001124480D591D41515C4F111101C07B2C88
:105160007A01E70CF11CF7016288FEE7F61558F0AA
:105170006394F701628AF1016082911104C08F3754
:1051800009F08F5F9B81112321F07394F3E0F715F1
:1051900020F71196685F7F4F43E0A333B40749F6C9
:1051A0002F5F3F4F2830310509F0B9CF80930701B9
:1051B00010921B0381E08093080180914C038111C0
:1051C0009FC020900B038091040187FF282E6090E0
:1051D0000C036110212CF0901703822C912C9C8AD7
:1051E0008B8A2401440C551CE42C59E0952E9F1405
:1051F00008F451C281E090E05C010F2C02C0AA0CBF
:10520000BB1C0A94E2F7BE86AD8681E090E0A0E088
:10521000B0E00F2C04C0880F991FAA1FBB1F0A946F
:10522000D2F74C016C01C094D09408E113E01887C8
:105230000F830FEE13E01E830D83712CAF2CB12C66
:10524000BC86AB86332433940D811E81AF80B88435
:105250001986D50118968C918823C9F121E08130F7
:1052600009F020E0422D6F2D8985880F880F880F67
:10527000870D0E94B804F5019085913009F0B9C1FD
:1052800090930A038091090320911603222309F4C5
:1052900095C181117FC13092090330920F03409173
:1052A0000903842F90E0EB85FC85E00FF11F9C0142
:1052B00061108DC10E2C01C0220F0A94EAF7808183
:1052C000822B8083D50118961C9230920801B8E099
:1052D000AB0EB11C00551E4FE985E13009F057C1F6
:1052E00073940F8118850F5F1F4F18870F830D81EF
:1052F0001E810A5C1F4F1E830D8318E07112A4CF1C
:1053000020914C038FEF820F843008F05CC0309105
:105310000801E8E1F3E08FEF90E04085442319F0C5
:105320001086892F3B814089442321F0108A88E030
:10533000890F3B819F5F3196983079F73093080150
:105340008F3F09F440C0243009F086C790910503CF
:10535000953109F0BBC380911303882309F48CC3F2
:105360001092FC021092FB021092FA0281E00E945D
:105370004E068DE68093E20391E39093E3039FE36F
:105380009093E40323E72093E5038093E60389E702
:105390008093E7039093E8039EE39093E90380935F
:1053A000EA0387E38093EB0389E38093EC0387E5CB
:1053B0008093ED030E940A0380ED97E00E9421058F
:1053C00081E0809308019091040380911D03911165
:1053D00006C080911C0320914C03223011F48230CE
:1053E00051F080911C03823009F0FEC380911D03AF
:1053F000823009F0F9C384E080934C031092FE02DE
:1054000081E08093080110921D0310921C031092FA
:10541000040390914C03953009F4D9C580911C0385
:10542000943009F01BC4823009F0D1C58091050386
:10543000882309F411C48150809305031092FE0261
:1054400010921C0381E080930801C1C580910E0376
:1054500091E0892780930E0352CC80915C038823CE
:1054600009F44DCC0E94981F4ACC823009F047CCF9
:105470002CCCF301E80FF91F3289F101E80FF91F75
:1054800022A5A985BA85A80FB91FA151BC4FEB85EC
:10549000FC85E80FF91FE151FC4F10E0D6960C9106
:1054A000D6970C9306A900831F5FD696F6961F30F9
:1054B000A9F7F301E80FF91FE45CFC4F3083ED8599
:1054C000FE858E0F9F1FFC01EC5AFC4F2083CBCC36
:1054D000243021F48FEF0E945F1244CD80910501AA
:1054E000909106018932910528F001979093060169
:1054F0008093050180E00E94920334CDED81FE810E
:10550000E80FF91FE45CFC4F2081F101E80FF91F5F
:10551000EC5AFC4F3081AF81B885A80FB91FA1515B
:10552000BC4FE985FA85E80FF91FE151FC4F60E0B7
:105530007C91D6967C93D697708176AB6F5FD69729
:10554000F6976F30A9F7ED81FE81E80FF91F228BE6
:10555000EB85FC858E0F9F1FDC019A963C93A7CDAF
:10556000243021F481E00E945F1222CE8091050157
:1055700090910601883E53E0950728F40196909398
:1055800006018093050180E00E94920311CE21E084
:1055900029875FCE813031F4F2E0F09309038093E4
:1055A0000F037DCE823031F423E0209309039093E2
:1055B0000F0375CE833009F072CE6DCE811104C019
:1055C00033E0309309036BCE1092090368CE220FAB
:1055D000331F220F331FBC01B4E0660F771FBA954B
:1055E000E1F7262B242B36E0880F991F3A95E1F737
:1055F00067CE923009F066CE30920A03F801E40DCE
:10560000F51D828593852D853E8528233923232BFF
:1056100039F18C219D2193878287662009F452CE2F
:10562000D8011C968D919C911D978C219D211D96D2
:105630009C938E931C971E968D919C911F978C2105
:105640009D211F969C938E931E9750968D919C91B1
:1056500051978C219D2151969C938E93509732CED9
:105660008829992993878287662009F42BCEF8012F
:105670008485958588299929958784878685978546
:1056800088299929978786878089918988299929E6
:10569000918B808B17CE82010F5F1F4F18870F836E
:1056A00081E090E0A0E0B0E00F8004C0880F991F77
:1056B000AA1FBB1F0A94D2F7182F10951D8B41E02B
:1056C00050E060E070E004C0440F551F661F771F74
:1056D0004A94D2F74E8B842E882A8D86382C3094AB
:1056E00008E113E01C870B871D82FBE15F2E442439
:1056F00043948B849C841F86D40118968C918823B4
:1057000009F480C040920A03FF84FF0CFF0CFF0CD9
:10571000AD80FA0CF09208032092EE03B0901703CC
:1057200020E0422D6B2D8F2D0E94B804D4011896D5
:105730008C919FEF980F923008F051C09091070123
:10574000913809F04CC076EFA72EAB0CA9862B2D13
:105750002A50330B89016901CC0CDD1CCC0CDD1CFB
:105760006F2C712C36E33F9DC00CD11C1124A60177
:1057700041515C4F6A016B897C89C60ED71ED601E8
:1057800052969C91911163C0A09003010E2C01C010
:10579000AA0C0A94EAF7F801E759FC4FFA8BE98B57
:1057A00081816985811149C08F2D0E9466004092D8
:1057B0000703ECE3A989BA891196EC93D6015296B6
:1057C000EC93569CF001579CF00D1124E00FF11F53
:1057D000EE0FFF1FE75EFB4F8081A82AA082809119
:1057E0000C03882339F0609117036A5080910803F5
:1057F0000E942A02D40118968C91833019F4B1E8E2
:10580000B0930701F401108640920801F8E08F0E72
:10581000911C0F85013071F41D811F5F1D830B8565
:105820001C850F5F1F4F1C870B871D81183009F0E7
:1058300060CF66CD11E01F875FCF8F2D0E9466007D
:10584000A989BA8911968C91F601828BBACF909171
:105850001603992309F4B7C0823009F048C0569C5A
:10586000F001579CF00D1124E00FF11FDF01AA0F8A
:10587000BB1FA151BC4F9B964C919B97242F30E0AE
:10588000C9010F8002C0959587950A94E2F7880FA9
:10589000991F82700E2C02C0359527950A94E2F765
:1058A0002170282B2130D1F4EE0FFF1FE75EFB4F54
:1058B0008081832180839B968C919B97AD848A29DC
:1058C0009B968C9320930F0380910C03882309F4FB
:1058D00091CF69858F2D0E942A0281CFBE884B29E6
:1058E0000D8940239B964C9340920F03EDCF21E00E
:1058F000422D6B2D8F2D0E94B804569CF001579CB1
:10590000F00D1124E00FF11DEE0FFF1FE151FC4FD0
:1059100043A5242F30E0C9010F8002C095958795DB
:105920000A94E2F7880F991F82700E2C02C03595F9
:1059300027950A94E2F72170822B80930603432176
:1059400043A790910903911105C040920903409229
:105950000F0307C0913071F522E020930903909363
:105960000F032091090320930301569CA001579C2B
:10597000500D1124040F151FF801EE0FFF1FE75EF5
:10598000FB4F0E2C01C0220F0A94EAF79081292BBD
:105990002083000F111FF801E151FC4F082E000C6D
:1059A000990B0E2C01C0880F0A94EAF793A5892B56
:1059B00083A78ACF923021F433E030930903C7CF15
:1059C000933079F6C2CF569CF001579CF00D11240C
:1059D000DF01A00FB11DAA0FBB1FA151BC4F9B96A9
:1059E0002C9130E0C9010F8002C0959587950A94EB
:1059F000E2F7880F991F82700E2C02C0359527950B
:105A00000A94E2F72170822B809306038330A1F47D
:105A1000E00FF11FDF01AA0FBB1FA151BC4F9B96E6
:105A20008C919B9783219B968C93EE0FFF1FE75ED3
:105A3000FB4F808183218083569CF001579CF00DA1
:105A400011240E0F1F1FF801EE0FFF1FE75EFB4F23
:105A5000808190910903911104C0AD848A298083CB
:105A6000BECE83218083000F111FF801E151FC4F4E
:105A700083A5832183A7B3CE8091FE028130D1F428
:105A80000E942F1F0E94B0101A8219821091FF02EB
:105A900041E0BE016F5F7F4F812F0E948815812FEB
:105AA0000E94CC1880914C03843009F08CCC109269
:105AB0004C0389CC8230D9F70E942F1F0E94B0106E
:105AC0001092FF0281E00E945C16ECCF1092070357
:105AD0008093170378CC98EF980F943008F03FC06C
